:02000002B0004C
:1040000000400B000EB90B00000006000C0005027A
:084010000401B41400000000DB
:0440180044A40B00B1
:1040200081F0004102E000BF83F0004330B54FEA69
:1040300041044FEA430594EA050F08BF90EA020FD6
:104040001FBF54EA000C55EA020C7FEA645C7FEA69
:10405000655C00F0E2804FEA5454D4EB5555B8BF8C
:104060006D420CDD2C4480EA020281EA030382EAFD
:10407000000083EA010180EA020281EA0303362D8F
:1040800088BF30BD11F0004F4FEA01314FF4801C62
:104090004CEA113102D0404261EB410113F0004F74
:1040A0004FEA03334CEA133302D0524263EB43032B
:1040B00094EA050F00F0A780A4F10104D5F1200EC9
:1040C0000DDB02FA0EFC22FA05F2801841F1000124
:1040D00003FA0EF2801843FA05F359410EE0A5F1F8
:1040E00020050EF1200E012A03FA0EFC28BF4CF029
:1040F000020C43FA05F3C01851EBE37101F00045DF
:1041000007D54FF0000EDCF1000C7EEB00006EEBEB
:104110000101B1F5801F1BD3B1F5001F0CD3490875
:104120005FEA30004FEA3C0C04F101044FEA4452CC
:1041300012F5800F80F09A80BCF1004F08BF5FEA53
:10414000500C50F1000041EB045141EA050130BD33
:104150005FEA4C0C404141EB0101013C28BFB1F545
:10416000801FE9D291F0000F04BF01460020B1FA90
:1041700081F308BF2033A3F10B03B3F120020CDA63
:104180000C3208DD02F1140CC2F10C0201FA0CF041
:1041900021FA02F10CE002F11402D8BFC2F1200CA6
:1041A00001FA02F120FA0CFCDCBF41EA0C0190405C
:1041B000E41AA2BF01EB0451294330BD6FEA0404A5
:1041C0001F3C1CDA0C340EDC04F11404C4F1200290
:1041D00020FA04F001FA02F340EA030021FA04F3A2
:1041E00045EA030130BDC4F10C04C4F1200220FAF9
:1041F00002F001FA04F340EA0300294630BD21FA37
:1042000004F0294630BD94F0000F83F4801306BFFC
:1042100081F480110134013D4EE77FEA645C18BFF0
:104220007FEA655C29D094EA050F08BF90EA020F87
:1042300005D054EA000C04BF1946104630BD91EA7F
:10424000030F1EBF0021002030BD5FEA545C05D182
:104250004000494128BF41F0004130BD14F58004C1
:104260003CBF01F5801130BD01F0004545F0FE4135
:1042700041F470014FF0000030BD7FEA645C1ABF6A
:10428000194610467FEA655C1CBF0B46024650EAA1
:10429000013406BF52EA033591EA030F41F40021CD
:1042A00030BD00BF90F0000F04BF0021704730B553
:1042B0004FF4806404F132044FF000054FF0000128
:1042C00050E700BF90F0000F04BF0021704730B5E9
:1042D0004FF4806404F1320410F0004548BF4042BE
:1042E0004FF000013EE700BF42004FEAE2014FEA13
:1042F00031014FEA02701FBF12F07F4393F07F4FEE
:1043000081F06051704732F07F4208BF704793F0F0
:104310007F4F04BF41F40021704730B54FF4607403
:1043200001F0004521F000411CE700BF50EA010206
:1043300008BF704730B54FF000050AE050EA0102AF
:1043400008BF704730B511F0004502D5404261EB1F
:1043500041014FF4806404F132045FEA915C3FF460
:10436000D8AE4FF003025FEADC0C18BF03325FEAFD
:10437000DC0C18BF033202EBDC02C2F1200300FAAE
:1043800003FC20FA02F001FA03FE40EA0E0021FAD3
:1043900002F11444BDE600BF70B54FF0FF0C4CF4C1
:1043A000E06C1CEA11541DBF1CEA135594EA0C0F73
:1043B00095EA0C0F00F0DEF82C4481EA030621EAAE
:1043C0004C5123EA4C5350EA013518BF52EA0335E9
:1043D00041F4801143F4801338D0A0FB02CE4FF09B
:1043E0000005E1FB02E506F00042E0FB03E54FF0CB
:1043F0000006E1FB03569CF0000F18BF4EF0010EC3
:10440000A4F1FF04B6F5007F64F5407404D25FEABE
:104410004E0E6D4146EB060642EAC62141EA555171
:104420004FEAC52040EA5E504FEACE2EB4F1FD0CB3
:1044300088BFBCF5E06F1ED8BEF1004F08BF5FEA31
:10444000500E50F1000041EB045170BD06F00046E3
:1044500046EA010140EA020081EA0301B4EB5C0490
:10446000C2BFD4EB0C0541EA045170BD41F4801188
:104470004FF0000E013C00F3AB8014F1360FDEBFAD
:10448000002001F0004170BDC4F10004203C35DA89
:104490000C341BDC04F11404C4F1200500FA05F30C
:1044A00020FA04F001FA05F240EA020001F00042AD
:1044B00021F0004110EBD37021FA04F642EB060123
:1044C0005EEA430E08BF20EAD37070BDC4F10C044D
:1044D000C4F1200500FA04F320FA05F001FA04F211
:1044E00040EA020001F0004110EBD37041F10001FD
:1044F0005EEA430E08BF20EAD37070BDC4F1200508
:1045000000FA05F24EEA020E20FA04F301FA05F26F
:1045100043EA020321FA04F001F0004121FA04F217
:1045200020EA020000EBD3705EEA430E08BF20EAE7
:10453000D37070BD94F0000F0FD101F00046400021
:1045400041EB010111F4801F08BF013CF7D041EAA3
:10455000060195F0000F18BF704703F000465200A7
:1045600043EB030313F4801F08BF013DF7D043EA78
:104570000603704794EA0C0F0CEA135518BF95EA2E
:104580000C0F0CD050EA410618BF52EA4306D1D1B5
:1045900081EA030101F000414FF0000070BD50EAD4
:1045A000410606BF1046194652EA430619D094EA5E
:1045B0000C0F02D150EA013613D195EA0C0F05D148
:1045C00052EA03361CBF104619460AD181EA03019C
:1045D00001F0004141F0FE4141F470014FF0000054
:1045E00070BD41F0FE4141F4780170BD70B54FF0EF
:1045F000FF0C4CF4E06C1CEA11541DBF1CEA13556F
:1046000094EA0C0F95EA0C0F00F0A7F8A4EB050450
:1046100081EA030E52EA03354FEA013100F0888047
:104620004FEA03334FF0805545EA131343EA126310
:104630004FEA022245EA111545EA10654FEA0026C5
:104640000EF000419D4208BF964244F1FD0404F57E
:10465000407402D25B084FEA3202B61A65EB0305DA
:104660005B084FEA32024FF480104FF4002CB6EB97
:10467000020E75EB030E22BFB61A754640EA0C0017
:104680005B084FEA3202B6EB020E75EB030E22BF57
:10469000B61A754640EA5C005B084FEA3202B6EB98
:1046A000020E75EB030E22BFB61A754640EA9C0057
:1046B0005B084FEA3202B6EB020E75EB030E22BF27
:1046C000B61A754640EADC0055EA060E18D04FEAE5
:1046D000051545EA16754FEA06164FEAC30343EA85
:1046E00052734FEAC2025FEA1C1CC0D111F4801F52
:1046F0000BD141EA00014FF000004FF0004CB6E74B
:1047000011F4801F04BF01430020B4F1FD0C88BFE9
:10471000BCF5E06F3FF6AFAEB5EB030C04BFB6EBF4
:10472000020C5FEA500C50F1000041EB045170BDE7
:104730000EF0004E4EEA113114EB5C04C2BFD4EB14
:104740000C0541EA045170BD41F480114FF0000E98
:10475000013C90E645EA060E8DE60CEA135594EA14
:104760000C0F08BF95EA0C0F3FF43BAF94EA0C0F17
:104770000AD150EA01347FF434AF95EA0C0F7FF48C
:1047800025AF104619462CE795EA0C0F06D152EAE0
:1047900003353FF4FDAE1046194622E750EA4106C4
:1047A00018BF52EA43067FF4C5AE50EA41047FF4D5
:1047B0000DAF52EA43057FF4EBAE12E74FF0FF3C3A
:1047C00006E000BF4FF0010C02E000BF4FF0010C0B
:1047D0004DF804CD4FEA410C7FEA6C5C4FEA430C84
:1047E00018BF7FEA6C5C1BD001B050EA410C0CBFD3
:1047F00052EA430C91EA030F02BF90EA020F002035
:10480000704710F1000F91EA030F58BF994208BF9B
:1048100090422CBFD8176FEAE37040F00100704758
:104820004FEA410C7FEA6C5C02D150EA013C07D1AF
:104830004FEA430C7FEA6C5CD6D152EA033CD3D0FA
:104840005DF8040B704700BF8446104662468C46F4
:104850001946634600E000BF01B5FFF7B7FF002827
:1048600048BF10F1000F01BD4DF808EDFFF7F4FF50
:104870000CBF012000205DF808FB00BF4DF808EDDB
:10488000FFF7EAFF34BF012000205DF808FB00BFFE
:104890004DF808EDFFF7E0FF94BF012000205DF820
:1048A00008FB00BF4DF808EDFFF7CEFF94BF0120D5
:1048B00000205DF808FB00BF4DF808EDFFF7C4FFCE
:1048C00034BF012000205DF808FB00BF4FEA410C17
:1048D0007FEA6C5C02D150EA013C0AD14FEA430CFA
:1048E0007FEA6C5C02D152EA033C02D14FF0000037
:1048F00070474FF0010070474FEA410212F5001275
:1049000015D211D56FF47873B3EB625212D94FEA16
:10491000C12343F0004343EA505311F0004F23FA00
:1049200002F018BF404270474FF00000704750EA55
:10493000013005D111F0004008BF6FF00040704712
:104940004FF00000704700BF4A0011D212F500126C
:1049500011D20DD56FF47873B3EB62520ED44FEAD7
:10496000C12343F0004343EA505323FA02F0704757
:104970004FF00000704750EA013002D14FF0FF3095
:1049800070474FF0000070474FEA4102B2F1E04338
:1049900024BFB3F5001CDCF1FE5C0DD901F0004C26
:1049A0004FEAC0024CEA5070B2F1004F40EB830076
:1049B00008BF20F00100704711F0804F21D113F1A2
:1049C0003872BCBF01F00040704741F480114FEADB
:1049D0005252C2F11802C2F1200C10FA0CF320FA64
:1049E00002F018BF40F001004FEAC1234FEAD32381
:1049F00003FA0CFC40EA0C0023FA02F34FEA4303EB
:104A0000CCE77FEA625307D150EA01331EBF4FF073
:104A1000FE4040F44000704701F0004040F0FE408E
:104A200040F40000704700BFD0B50C4B0022064692
:104A30000F46FFF7B1FCFFF787FF0446FFF732FC94
:104A4000074B0022FFF7A8FC02460B4630463946CA
:104A5000FFF7EAFAFFF778FF2146D0BD0000F03DEE
:104A60000000F04110F8012B11F8013B012A28BF8A
:104A70009A42F7D0D01A7047034613F8012B002A48
:104A8000FBD1181A0138704738B5002200230446BC
:104A90000D46FFF7F3FE28B920462946BDE8384009
:104AA000FFF7C2BF204605F10041FFF7BDFF4042BE
:104AB00061EB410138BD00BF09480A49884208B589
:104AC00005D0094A824202D0121A03F05CFD074861
:104AD000074A0021121A03F064FD014808BD00BF17
:104AE000DCE3032004B70B00B8E50320B8E503209E
:104AF000F0E7032070B5074E074C03F0FBFAA41B48
:104B0000A4080025AC4200D170BD56F8043B98477C
:104B10000135F7E7BCB60B00E0B60B0000F084B837
:104B200008B500F02FF8BDE8084003F09BBA02F08A
:104B30006BB902F069B902F06FB902F06DB900000B
:104B400008B5034A03490C2002F0BAF8FEE700BF9B
:104B500081690B0058A40B000078B0FA80F040097E
:104B600070470123037070470EB403B503AB0021F7
:104B700053F8042B019302F0B2FC02B05DF804EB91
:104B800003B070471FB5184801F0B1FE174801F097
:104B90001BFB70B1154801F0EEFC154A154913488E
:104BA00001F08DFC42F2107005B05DF804EB02F0EC
:104BB0006BB9684602F0B8F800990C4801F0F4FBB4
:104BC000684602F075FD0C49084801F01CFE0B49CF
:104BD000064801F018FE03F0BFF9094905B05DF879
:104BE00004EB02F080BB00BF18E60320B8E5032009
:104BF0006DA40B0072A40B0085A40B0099A40B00FC
:104C0000ADA40B0010B5074C204600F063FE002257
:104C10004FF00113C4E9042320460121BDE81040F0
:104C200000F0ADBC18E6032010B503F095F94FF481
:104C3000165103F085F9094C094801F02FFEFFF7E2
:104C4000E1FF074801F0B4F80649204601F0DBFD1A
:104C500020460549BDE8104001F0D5BDB8E5032068
:104C600018E6032085A40B0099A40B00B0B52DED28
:104C7000028B02F1080388B023F0070300AFADEB0D
:104C8000030D14460546684603F07DFC0023694683
:104C900038460DF8043002F056FD384602F08EFD1D
:104CA00010EE100AFFF720FB41EC180B294607F124
:104CB000100002F048FD03F04FF96A462449254DE3
:104CC000FFF752FF03F048F902F001FB03F044F94B
:104CD000B0EE480AF0EE680A022102F0F5FB1E4928
:104CE00007F1100002F055FD30B103F035F91B4912
:104CF00002F0F9FA85ED008B19491A4C07F1100002
:104D000002F047FD30B103F027F9174902F0EBFA42
:104D100084ED008BFFF776FF95ED000B0221134821
:104D200002F0D2FB94ED000B0221104802F0CCFB04
:104D30000E4801F03DF807F1100002F0B9FC3846CA
:104D400002F0B6FC2037BD46BDEC028BB0BD00BF03
:104D5000B9A40B00A8E6032088E60320BCA40B003E
:104D600098E60320B0E60320C0A40B0018E6032059
:104D700007B5002340F25B7200930A490A4B0B48C7
:104D800001F046F907210A4801F05AFD09490A488D
:104D900002F0D9FC09490A4803B05DF804EB02F0BF
:104DA000D2BC00BFC5A40B006D4C0B00B8E50320BE
:104DB00018E6032085A40B0088E6032099A40B00C5
:104DC00098E603202DE9F04F85B01F46BDF93880E5
:104DD000BDF83C30A8EB0209A7EB010AB9F1000FBE
:104DE000B8BFC9F10009BAF1000FB8BFCAF1000A93
:104DF000D14583460C46154604DD3A462C464746C7
:104E00000D469046BC4205DD2A4645469046224660
:104E10003C4617463E1BB2B20092A8EB050282EA5E
:104E2000E271A1EBE271C6F3C03202FA86F64545A3
:104E3000B4BF01224FF0FF32019176100292BC42C2
:104E40001CDCDBF800200393D145D2F81880C7BFE3
:104E5000294622462A4621465846C047019A039BC6
:104E6000B61AB1B236B2002E05DA029A1544009A8B
:104E700056182DB236B2013424B2E0E705B0BDE8D1
:104E8000F08F704710B404682469A4465DF8044BA1
:104E9000604730B40468BDF808500295A46BA4467E
:104EA00030BC604730B40468BDF808500295E46B2C
:104EB000A44630BC604770B4BDF90C50BDF810601A
:104EC0000468CDE90356246CA44670BC60472DE904
:104ED000F3411C460368BDF820805B690546164611
:104EE000013C34440F4624B298472B68CDF8048027
:104EF00000949C6A28463B4632463946A0472B68B8
:104F0000DB6A284602B0BDE8F04118472DE9F341BD
:104F10001D460368BDF820805B69044617460E46AF
:104F20009847CDE9007822686B1E3344956A204685
:104F30001BB23A463146A8472368DB6A204602B0D6
:104F4000BDE8F04118472DE9F3471E460368BDF957
:104F500028905B69BDF82C800C460546174698479B
:104F60002644B4422B680BDACDF80080D3F820A099
:104F700021464B463A4628460134D04724B2F0E752
:104F8000DB6A284602B0BDE8F047184713B502684F
:104F90000191B0F90E100091146CB0F90C300022A0
:104FA0001146A04702B010BD2DE9F74399421646BD
:104FB000BDF92870BDF82C90026880460D461C464D
:104FC00013D1BE42C8BF3346CDF82890C4BF3E4679
:104FD0001F467B1C946B9B1B1BB2324629464046E6
:104FE000A44603B0BDE8F0436047BE420AD19942EF
:104FF000C2BF0B4625461C46631CCDF82890D46BD7
:105000005B1BE9E753699847CDE90079D8F8003090
:1050100040469F6A324623462946B847D8F80030B2
:10502000DB6A404603B0BDE8F04318472DE9F3477B
:105030001D460368BDF82C805B69BDF928900446C5
:105040000F46164698472368CDF80080D3F824A071
:1050500032462B4639462046D0472368CDF800809B
:1050600009F1FF323244D3F824A039462B462046BA
:1050700012B2D0472368CDF80080D3F820A0324682
:105080004B4639462046D0476B1ED9192368CDF8C8
:1050900000801D6A20464B46324609B2A847236865
:1050A000DB6A204602B0BDE8F0471847704701F0C0
:1050B0000303B0F90A208376C907B0F9083059BF55
:1050C0008381C2818281C3817047000030B54281F3
:1050D000C281074A074D0181002481814FF0FF31D1
:1050E000C0E905124460056004610477046230BDC4
:1050F00001010001DCA90B002DE9F04F89B0CDE9D9
:1051000002120268BDF948800493BDF94C3052691F
:105110000593BDF850A00446904718F107024FF0E0
:10512000000648BF08F10E024FEAE20B0196354631
:10513000039B019ABDF904109A18059B8B4212B289
:1051400027DD049B33444FF0000906930FFA89F0E2
:1051500080451FFA89F117DD4F0705BF069BC01078
:105160006D001D5C18BFEDB22B060AD5029B2068AE
:1051700007921944836909B21F4620465346B8472F
:10518000079A09F10109E1E7019B013301935E44AC
:10519000CEE72368DB6A204609B0BDE8F04F184728
:1051A0002DE9F04F2DED028B91B01646026ABDF845
:1051B00074809DF878509DF87C4003911F46BDF89F
:1051C000703004938346002A40F0C580B0F90C305B
:1051D0008B4240F34C81B0F90E30B34240F347812B
:1051E000062313FB0513002B40F3418106EBC40398
:1051F000002B40F33C81037F1BB9AF2F84BF0137E5
:10520000FFB2DBF8003058465B69984705220992E7
:1052100000220592984A07EB8703D3180C93B3B288
:105220000693059A0C9B9B5C0793ABB20B93BDF85E
:105230000C300893039B02FB05F919FA83F90FFA66
:1052400089F308EE103A08230A93039B02EB030A42
:105250004FF000090FFA8AFA079ADBF80030D207FC
:1052600052D5012D1FFA89F23ED1012C3CD19B6908
:1052700006991F46049B0A4412B251465846B84745
:1052800009F101034FFA83F9079B5B0807930A9B17
:10529000013B13F0FF030A93DED1059F01377BB278
:1052A0000593099B013B13F0FF030993B9D1049BBC
:1052B00043450FD0012DDBF800303BD1012C39D113
:1052C0000899CDF8008005311C6A3246082309B2DE
:1052D0005846A047DBF80030DB6A584611B0BDECF9
:1052E000028BBDE8F04F1847069914FB02F20A44FE
:1052F000049901910094DB6918EE101A1F4612B24E
:105300002B465846B847BBE7049A4245B8D0012D12
:105310001FFA89F207D1012C05D19B6906991F4616
:105320000A444346A8E70699CDF8048014FB02F22C
:105330000A44DFE70B9ACDF8048002EB8201089A59
:10534000E4000A4411460094DC6932462B4609B257
:105350005846A047BEE7137A516812680B92FF1AAD
:10536000FFB201EBC70331F8372006929A78099211
:10537000DA780C92012D93F9052093F906A00A9290
:1053800001D8012C57D9BDF9283008930FFA8AF3B8
:105390000793DBF8003058465B699847B3B24FF08B
:1053A00000080E931AFA86F3C14647460F930C9BEA
:1053B0009F428FD2079B0E9A3B4403FB042300229B
:1053C00005920F9A1BB202EB070A08EE103A0FFA89
:1053D0008AFA4346099A0599914241D25A1CD2B29F
:1053E0005B070D9207D1069B06990B9A01339BB27E
:1053F00012F80190069319F0800F12D0012DDBF8FE
:105400000030BDF80C101AD1012C18D10A9A9B69F2
:105410001144059A11441E465246049B09B258464F
:10542000B047059E0136F3B24FEA490905935FFA8A
:1054300089F90D9BCEE70023CDE90733A9E705984D
:10544000089A024402FB0511049ACDE90042DB6987
:1054500018EE102A1E4609B22B465846B047E0E720
:10546000099B013798445FFA88F8FFB29FE711B0B3
:10547000BDEC028BBDE8F08FD4A40B00F0B5026A3E
:1054800085B004460B46002A34D10A2908D1438A44
:105490000282427E03EBC2036382012005B0F0BDAD
:1054A0000D29FAD0E17E007E657E71B1B4F91060FD
:1054B000062111FB0061B4F90C60B142C1BFB4F91F
:1054C0001210228201EBC5026282E28A0192A28A54
:1054D0000092CDE90205B4F91220B4F9101020466B
:1054E000FFF75EFE237E228A03EB430302EB4303B6
:1054F0002382D2E70A2907D100230382417E927AD0
:10550000438A01FB0233C7E70D29C6D0157AA942A9
:10551000C3D3517A9942C0D351685D1BEDB201EB00
:10552000C505A87828B3E97819B3E17E267E677EA1
:1055300091B195F905100844B4F9101006FB00115B
:10554000B4F90C00814207DD00202082B4F912106A
:10555000927A02FB07126282E28A0192A28A009288
:10556000CDE90267B4F91220B4F910102046FFF714
:1055700017FE2979227E238A01FB0233B8E701292D
:1055800038BF0121017641767047704710B5102170
:105590000446FFF7D2FA204610BD000073B504465A
:1055A00008462279A36832B1A3B90B4902B0BDE81D
:1055B000704001F085BE094A267B094D0949647B8C
:1055C000012E18BF2946CDE900140749FFF7CCFA90
:1055D00002B070BD054AEFE73DAA0B0034AA0B00EC
:1055E00039AA0B0035AA0B0053AA0B002CAA0B00FA
:1055F00010B5044B03600446C06A08B101F00CFC0E
:10560000204610BD2CAF0B0010B50446FFF7F0FF8D
:1056100020465021FFF791FA204610BD002910B511
:105620004BDBB0F90C408C4247DD002A45DBB0F97A
:105630000E40944241DD847E022C1FD0032C26D0E4
:10564000012C04D10489D24314440A4621B2012B0F
:1056500023D0022B32D083BB002A13460489C06AB0
:10566000B8BFD31DDB1013FB041102F007020123A6
:105670009340425C22EA030242541EE00489013C4A
:10568000611A4489D243224409B212B2DFE7448945
:10569000013C641A114622B2D9E7002A0489134654
:1056A000B8BFD31DDB1013FB0411C36A02F007005F
:1056B00001228240585C02435A5410BD002A13460E
:1056C0000489C06AB8BFD31DDB1013FB041102F0BC
:1056D0000702012303FA02F2435C5A40CCE70000C0
:1056E00070B504461D460026FFF7F0FC114B236001
:1056F000666215B902F0C6FD0546FF2384F8333013
:1057000084F836309DF9103084F837300A4BA363A3
:10571000012384F83C30059BA3644FF6FF72069B7F
:10572000A286C4E90A562664A4F84460E3642046CD
:1057300070BD00BF2CAF0B0078AA0B00F8B5044673
:10574000806A0D4690B194F9301001F03FFCA06AD8
:10575000036800219B689847A06A036829469B68F4
:105760009847A06ABDE8F84001F037BC94F935309D
:10577000014698B202F03FFD606A20B12946BDE8BB
:10578000F84001F08FBF0826802794F9330005EA1E
:10579000070180B202F02FFD94F93400012180B29C
:1057A00002F029FD94F93400002180B202F023FDBB
:1057B000013E4FEA5707E8D1F8BD38B50446806A84
:1057C0000D4680B1A16C01F0F3FB002D204614BF03
:1057D000A721A621FFF7B2FFA06A88B1E16CBDE85E
:1057E000384001F0E5BB606A18B104F1380101F0FE
:1057F000EBFE94F93600002180B202F0FCFCE4E7F5
:1058000094F93600012180B202F0F5FC606A18B10B
:10581000BDE8384001F0BEBE38BD2DE9F84304466E
:10582000806A0D468F1840B394F9301001F0CEFB1A
:10583000A06A036800219B6898470126AF42A06ACE
:1058400017D01F2E0CD901F0C8FB94F93010A06AB4
:1058500001F0BCFBA06A036800219B689847012601
:10586000A06A15F8011B036801369B689847F6B2D9
:10587000E4E7BDE8F84301F0B0BB94F935300146E8
:1058800098B202F0B8FCBD4222D0606A15F8019BC4
:1058900018B1494601F006FFF5E708264FF08008E9
:1058A00094F9330009EA080180B202F0A4FC94F9EB
:1058B0003400012180B202F09EFC94F934000021F2
:1058C00080B202F098FC013E4FEA5808E8D1DAE7CE
:1058D000BDE8F883B0F90A30DA1D48BF03F10E02C3
:1058E000B0F90830C06AD2105A43002102F059BE04
:1058F0002DE9FF411E46C36A9DF8288004460F46E5
:105900001546C3B12046FFF7E5FFB4F90A00B4F924
:105910000810202821DC202301222038CDE9013283
:1059200000EBD07073237339009301EBD171894B75
:1059300040F34F0221E0B0F90A30D81D48BF03F10F
:105940000E00B4F90830C010584301F05DFAE0626F
:105950000028D7D104B0BDE8F0814038C0F3C03290
:1059600002FA80F240230120CDE90130522352395E
:105970000093794B01EBD1715210204641F34F0156
:10598000FFF7BAFBA06A84F83170002878D0002DA8
:1059900074D1B4F90A30202B0CBF3C253D2584F886
:1059A0003050B8F1000F01D001F006FBFEB194F9C0
:1059B000370000281BDB012180B202F00BFC94F9B8
:1059C0003700012180B202F016FC012001F05CFAE0
:1059D00094F93700002180B202F00DFC0A2001F09A
:1059E00053FA94F93700012180B202F004FCA06A56
:1059F000002874D0A16C01F0DBFA0422574920463C
:105A0000FFF70BFF61890139C9B22046FFF796FE07
:105A1000534904222046FFF700FF94F93130012B4F
:105A20000CBF102114212046FFF788FE04224D49A7
:105A30002046FFF7F2FEA3684B4A93425CD14B49E4
:105A400004222046FFF7E9FED9212046FFF776FE23
:105A500094F93130012B0CBF2221F1212046FFF7B0
:105A60006DFE204642490622FFF7D7FEA06A0028B5
:105A700063D0E16C01F09CFA01206BE76DB28EE718
:105A800094F93500012180B202F0A4FB94F93600AC
:105A9000012180B202F09EFB94F93600012180B210
:105AA00002F0A9FB656A3DB1B8F1000F3FF47EAF8B
:105AB000284601F05BFD79E794F93300012180B2BB
:105AC00002F088FB94F93400012180B202F082FBDD
:105AD00094F93400294680B202F08DFB66E7606AD3
:105AE00018B104F1380101F06FFD94F9360000217E
:105AF00080B202F080FB80E71E4A93420ED11E491D
:105B000003222046FFF789FE94F93130012B0CBFA8
:105B10009F21CF212046FFF711FE95E7174A9342B8
:105B200092D1174903222046FFF777FE94F93130CE
:105B3000012B0CBF1021AF21ECE794F936000121B5
:105B400080B202F058FB606A002895D001F022FD77
:105B500092E700BF44AD0B0084AA0B008CAF0B0092
:105B600090AF0B0094AF0B00800020009EAF0B00A5
:105B700098AF0B0080004000A2AF0B006000100047
:105B8000A5AF0B0070B5002ABDF810503DDBB0F991
:105B90000A40944239DD0029BEBF5B181BB20021C8
:105BA000B0F90840CE18A642C4BF631A1BB2002B3E
:105BB0002BDDC06AD61014FB0611014402F0070069
:105BC00001228240012DD2B216D0022D0BD0E5B9B0
:105BD000D243D2B20B44994217D011F8010B1040B6
:105BE00001F8010CF7E70B4499420ED011F8010BB4
:105BF000504001F8010CF7E70B44994205D011F829
:105C0000010B104301F8010CF7E770BDF0B5002956
:105C1000BDF8145076DBB0F90860B14272DA002AA0
:105C2000BEBF9B181BB20022B0F90A40D718A7428A
:105C3000C4BFA31A1BB2002B64DDC2F3C404C76A3D
:105C400016FB041612F00702DBB207EB060423D0A2
:105C5000C2F10802D2B22D4993423CBF4FF0FF0C73
:105C6000A2EB030E895C3CBF4CFA0EFC0CEA01016E
:105C7000012D07D0022D2ED04DB917F806C02CEA01
:105C8000010103E017F806C041EA0C01B95593423F
:105C900038D3B0F908100C449A1AD2B2072A0ED998
:105CA000022D1DD113462178C9432170083BB0F95C
:105CB0000810DBB2072B0C44F5D802F007020AB338
:105CC000134B012D9B5C1AD0022D1CD0D5B9227824
:105CD00022EA030315E017F806C081EA0C01D5E7B4
:105CE000291E18BF01214942C9B213462170083B41
:105CF000B0F90860DBB2072B3444F7D8DDE722782F
:105D000013432370F0BD22785340FAE77CAF0B00B9
:105D100084AF0B0070B41446827EBDF80C60022A7A
:105D20000DD0032A18D0012A11D10289E44314446A
:105D300024B203960A46214670BCFFF767BF42892A
:105D40000589E44319441444691A24B209B203963C
:105D5000224670BCFFF716BF45891944691A09B27B
:105D6000E7E730B41446827EBDF80850022A0DD011
:105D7000032A18D0012A11D1E2180489A41A24B2E6
:105D800002950A46214630BCFFF7FCBE0289C94392
:105D90001144E2184489A41A09B224B20295224699
:105DA00030BCFFF733BF4289C943114409B2E7E76A
:105DB0002DE9F8430446806A002842D0A16C01F026
:105DC000F7F8474905222046FFF727FD21890139C9
:105DD0002046C9B2FFF7B2FCB4F90A30DE1D48BF55
:105DE00003F10E06D4E90A052389F61013FB06F623
:105DF00015FA86F600283AD094F9301001F0E6F84A
:105E0000A06A036840219B6898470127B542A06AB1
:105E100024D01F2F0CD901F0E0F894F93010A06ABB
:105E200001F0D4F8A06A036840219B6898470127D5
:105E3000A06A15F8011B036801379B689847FFB2F9
:105E4000E4E7606A18B104F1380101F0BDFB94F990
:105E50003600002180B202F0CEF9B2E701F0BDF8C1
:105E6000A06A78B3E16CBDE8F84301F0A1B894F9F9
:105E70003500012180B202F0BEF9AE42F0D0606A76
:105E800015F8019B18B1494601F00CFCF5E708270D
:105E90004FF0800894F9330009EA080180B202F05B
:105EA000AAF994F93400012180B202F0A4F994F91E
:105EB0003400002180B202F09EF9013F4FEA5808F9
:105EC000E8D1DAE794F93600012180B202F093F9C3
:105ED000606A18B1BDE8F84301F05CBBBDE8F88327
:105EE000A8AF0B0000210A22C0E90012704700236E
:105EF00010B50446C171837188B202F095F908B1FA
:105F00000323A37100F044FD206010BD38B50C469A
:105F100005461146A0B202F05DF921462846BDE8CB
:105F20003840FFF7E4BF38B50446C07902F07CF989
:105F3000A579003825F0080318BF0120C5F34005F6
:105F40008542A3710AD000F023FDA379206083F07D
:105F50000203A371A079C0F3C00038BD00F018FDA2
:105F60002368C01AA3889842F4D3A37903F00103ED
:105F7000AB42EFD000F00CFDA379206083F0010369
:105F800043F00803E5E791F85C3010B50446016082
:105F900013B1886D00F0D4FC204610BD10B5036825
:105FA00093F85C20044612B1986D00F0D1FC2046B5
:105FB00010BDF8B51F469DF8243004460D46164620
:105FC0002BB1012380F85C30583000F0A9FC089B0D
:105FD00023630023636306B1A66425B1294604F157
:105FE000380001F0C4FB069B2365079BE069A4F819
:105FF0004C70FF2BB8BFFF23A4F8543008B1FEF754
:106000009AFDB4F85400FEF794FDE061F8BD00007D
:106010002DE9FF4104460025174698460E4601F03B
:10602000CDFE0D49E56104F1380001F08CFB9DF8CF
:106030002830A564CDE90283FF220F23CDE9003289
:10604000204684F85C503B462A463146FFF7B1FFB4
:10605000204604B0BDE8F08134AA0B0010B5044618
:10606000204601F007FE0028FAD0204601F0ECFBA4
:10607000C0B210BD2DE9F04705468846FFF7EEFF98
:10608000EB691870EB6993F800A04FF001090AF072
:10609000F00A00274C462846FFF7E0FF2646EB694A
:1060A000985500F07F0313FB09F31F4401340306E6
:1060B000A4B2BFB24FEAC919EDD4631EBAF1300FD2
:1060C00088F800301ED12846FFF7C8FFEB69185545
:1060D0002846FFF7C3FFF41C0236B6B2EB69A4B240
:1060E00098550226B6B2BE420ED22846FFF7B6FF3A
:1060F000B5F85430A34284BFEB6918550134A4B2FB
:106100000136EFE70026EDE7B5F85430A3422CBF87
:1061100020460020BDE8F0872DE9F34115461E46D4
:106120001A4607460023964602A802F07F0CBEF1ED
:106130007F0F03F10104034488BF4CF0800CBEF1D3
:106140007F0F4FEAD212E4B203F804CC1ED8C4F198
:106150000403C4F10500E954224601A9284405EBD3
:10616000030802F010FA721C22444146384601F03E
:1061700056FB054600F00CFC621C78623244A8B263
:10618000131A5842584102B0BDE8F0812346CAE7CD
:106190000233F0B5054698B20023CE5C9CB256B1EE
:1061A000B5F854C0844503F1010704D9441C1654C2
:1061B0003B46A0B2F1E799B2411A0A44210A02F81B
:1061C000021C02F8013CF0BD38B5044601F074FC35
:1061D000002814BF0125002502D1204601F0A4FDAE
:1061E000284638BD2DE9F04788B00446DDF84080E8
:1061F0009DF850A0894617461E46FFF7E5FF054665
:10620000002840F0CD80214601A8FFF7BCFEA16C1C
:10621000002940F08880B4F84C20A16B2B46204622
:1062200001F0CCFB00287AD0012323849DF8543060
:10623000E269042B5B4B40F08180186899889B7958
:10624000ADF80C108DF80E300290C2F805009DF8E4
:106250000E30BDF80C10A2F80910D3720C23B8F15F
:10626000000F00F081809DF848009DF84420400117
:1062700040EAC20040F00600C0B2BAF1000F01D1FE
:1062800000F0FD001FB1002E70D140F08000E269E7
:10629000D054226DE169581C12120A549A1CE1690B
:1062A000206D88540333E26949462046FFF770FFAA
:1062B0000346B8F1000F0BD0E26941462046FFF7D4
:1062C00067FFE269139903462046FFF761FF034623
:1062D00067B1E26939462046FFF75AFF03462EB1FF
:1062E000E26931462046FFF753FF0346053BE2696A
:1062F0009BB210212046FFF70FFF00F049FBC4E9D5
:1063000009004FF47A76204601F0B4FC88BB00F017
:106310003FFBA36AC01A236D73439842F3D920460A
:1063200001F002FD35E002A800F0D8FEB4F84C20E0
:106330002B4602A9204601F021FC73E7D3F80700A1
:10634000D3F80B10DB7B0DF1080CACE803008CF8E4
:10635000003002AB03CBC2F80500C2F809109CF86C
:10636000003053730E237AE7022086E740F0C00026
:106370008DE702A92046FFF77DFE0428CFD1E3690F
:10638000DE78002ECBD100F003FB0125A06284F85B
:106390002C6001A8FFF702FE284608B0BDE8F08790
:1063A0000025F9E734A40B007FB501230422CDE9D1
:1063B00004320023CDE90233CDE900331A46FFF75A
:1063C00011FF07B05DF804FB2DE9F74FDDF83C80C5
:1063D0009DF834509DF8389004468B4616461F466B
:1063E000FFF7F2FE8246002851D0214601A8FFF7B0
:1063F000CAFDB4F85420E069002102F0D2F8052368
:10640000E26959462046FFF7C3FE6B1E012B15D8E3
:10641000218CE369013189B22184090A1954421C93
:10642000E369218C92B20230995480B2B8F1000F26
:1064300004D0238C5A1C2284A8F8003000210B18A9
:106440008F42E2699BB20AD9B4F854C09C4506D980
:1064500016F801C002F803C0013189B2EFE79DF8D8
:10646000301000290CBF30213121B9F1000F01D0CB
:1064700041F00801022D0ED141F00401053B9BB211
:106480002046FFF749FE824601A8FFF787FD5046E8
:1064900003B0BDE8F08F012D08BF41F00201EDE728
:1064A0001FB5089C0394002402949DF81C4001949D
:1064B0009DF818400094FFF787FF04B010BD30B579
:1064C00087B00446104605910492FEF7D5FA0025E0
:1064D0000346CDE90155DDE9042100952046FFF78B
:1064E000DFFF07B030BD73B504460E46FFF76CFE04
:1064F0000546C8B1214601A8FFF745FDE3696222C0
:106500001A70E36902225A70E369320A9A70E369E9
:10651000DE70E1690422204601F081F9051E01A820
:1065200018BF0125FFF73AFD284602B070BD73B5CC
:1065300004460E46FFF748FE0546C8B1214601A8AD
:10654000FFF721FDE36972221A70E36902225A7093
:10655000E369320A9A70E369DE70E1690422204639
:1065600001F05DF9051E01A818BF0125FFF716FD12
:10657000284602B070BD2DE9F04F2DED028B87B09B
:1065800000AF0446FFF720FE8146F8B1214607F12F
:106590001400FFF7F8FC00F0FBF9236D4FF47A725A
:1065A0005343A26A821A9A42064603D8626A821A42
:1065B000934221D294F82C307BB1204601F0B4FBF9
:1065C0004FF0000907F11400FFF7E8FC48461C37BC
:1065D000BD46BDEC028BBDE8F08FE269C0211170B1
:1065E000E2695370E1690222204601F018F9C4E91A
:1065F0000966012384F82C30204601F03BFB00287B
:10660000E0D007F113012046FFF734FD8346002850
:10661000D8D0E369A662197801F0F002302A7FD160
:10662000D4F830A0BAF1000FCCD097F813C06A4666
:1066300008EE102A03EB0C025178957805EB012542
:10664000ADB205F108026946D208A1EBC202954637
:106650000CF10302FA6003EB020E0DEB0502684633
:10666000C7F808D07A60D7E901218A4206D00A46E5
:106670001EF8018B02F8018BBA60F4E70022425544
:1066800093F80080F96808F00608ABEB0C02033AB7
:10669000B8F1020FA2EB0502294425D113F801E05D
:1066A0001944023A91F801B00CF10501294419444A
:1066B0000BEB0E2BD047E36940221A70E3691FFAF7
:1066C0008BFB83F80180E3694FEA1B229A70E36930
:1066D00083F803B0E1690422204601F0A0F8666265
:1066E00018EE103A9D466DE7B8F1040F15D113F876
:1066F00001E01944023A91F801B00CF10501294476
:1067000019440BEB0E2BD047E36950221A70E36952
:1067100002221FFA8BFB5A70D5E71944D047DFE7F6
:10672000502A08D19A78D97801EB022189B2204603
:10673000FFF7D9FE46E7402A12D1626B002A3FF4E8
:1067400041AFBBF1040F7FF43DAF11F0060F7FF4B2
:1067500039AF9978D87800EB012080B2904731E7C3
:10676000602A08D19A78D97801EB022189B22046B3
:10677000FFF7DDFE26E7702ADFD0902A3FF422AF34
:10678000C02A0AD1D0221A70E36900225A70E16946
:106790000222204601F043F814E7D02A04BF002368
:1067A00084F82C300EE7F7B504460F461646FFF77F
:1067B0000BFD054610B3214601A8FFF7E4FB238C2F
:1067C00001339BB2EBB12384238CE2691B0A537122
:1067D000E369228C9A71E269072339462046FFF764
:1067E000D7FCE3691E54043883B2E2698221204653
:1067F000FFF792FC054601A8FFF7D0FB284603B03F
:10680000F0BD0123DFE70022FFF7CDBF10B5064B37
:1068100003600446006D08B100F08AF82046FEF7D8
:10682000E7FE204610BD00BFB8AF0B0010B5044610
:10683000FFF7ECFF20467021FEF77FF9204610BDE0
:1068400030B585B004460D4601F01CFD104A1149D3
:10685000CDE901214FF0FF3280210346009220460E
:106860002022FEF73DFF0C4B23600023C4E91435C2
:1068700004F15800FFF736FB04F16000FFF732FB2C
:1068800004F16800FFF72EFB204605B030BD00BFC5
:10689000801A0600A0860100B8AF0B0013B50446AD
:1068A000503000F03DF8636DD90705D50222042170
:1068B00004F15800FFF72AFB636D9A0705D5002203
:1068C000032104F16000FFF721FB636D5B0705D531
:1068D0000222114604F16800FFF718FB0123009320
:1068E0003C2202212046FFF703F802B010BD10B58C
:1068F000436DD907044602D55830FFF714FB636D8A
:106900009A0703D504F16000FFF70DFB636D5B0789
:1069100005D504F16800BDE81040FFF704BB10BDC9
:1069200008B5024B1B681B6B019308BD48020300AE
:1069300008B5024B1B685B6B019308BD480203005E
:1069400008B5024B1B689B6B019308BD480203000E
:1069500008B5024B1B681B6C019308BD480203007D
:1069600008B5024B1B685B6C019308BD480203002D
:1069700008B5024B1B685B68019308BD1802030051
:1069800008B5024B1B68DB68019308BD18020300C1
:1069900008B5024B1B685B69019308BD1802030030
:1069A00008B5024B1B689B68019308BD2C020300CD
:1069B00008B5024B1B68DB68019308BD2C0203007D
:1069C00008B5024B1B681B69019308BD2C0203002C
:1069D00008B5024B1B685B69019308BD2C020300DC
:1069E00008B5024B1B681B68019308BD2802030011
:1069F00008B5024B1B68DB68019308BD2802030041
:106A000008B5024B1B689B69019308BD280203006F
:106A100008B5024B1B68DB69019308BD280203001F
:106A200008B5024B1B681B6A019308BD28020300CE
:106A300008B5024B1B685B6A019308BD280203007E
:106A400008B5024B1B689B6A019308BD280203002E
:106A500008B5024B1B68DB6A019308BD28020300DE
:106A600008B5024B1B681B6B019308BD280203008D
:106A700008B5024B1B685B6B019308BD280203003D
:106A800008B5024B1B681B6C019308BD280203006C
:106A900008B5024B1B685B69019308BD6C020300DB
:106AA00008B5024B1B685B69019308BD64020300D3
:106AB00008B5024B1B681B6A019308BD6402030002
:106AC00008B5024B1B689B6A019308BD6402030072
:106AD00008B5024B1B689B68019308BD6802030060
:106AE00008B5024B1B68DB68019308BD6802030010
:106AF00008B5024B1B689B69019308BD380203006F
:106B000008B5024B1B68DB69019308BD380203001E
:106B100008B5024B1B681B6A019308BD38020300CD
:106B200008B5024B1B689B6A019308BD380203003D
:106B300008B5024B1B681B6B019308BD38020300AC
:106B400008B5024B1B689B6B019308BD380203001C
:106B500008B5024B1B681B68019308BD3002030097
:106B600008B5024B1B685B69019308BD3002030046
:106B700008B5024B1B68DB69019308BD30020300B6
:106B800008B5024B1B681B6A019308BD3002030065
:106B900008B5024B1B685B6A019308BD3002030015
:106BA00008B5024B1B68DB6B019308BD3002030084
:106BB00008B5024B1B681B6C019308BD3002030033
:106BC00008B5024B1B685B6C019308BD30020300E3
:106BD00008B5024B1B68DB68019308BD3C0203004B
:106BE00008B5024B1B681B69019308BD3C020300FA
:106BF00008B5024B1B685B69019308BD3C020300AA
:106C000008B5024B1B689B69019308BD3C02030059
:106C100008B5024B1B68DB69019308BD3C02030009
:106C200008B5024B1B681B6A019308BD3C020300B8
:106C300008B5024B1B689B6A019308BD3C02030028
:106C400008B5024B1B681B6C019308BD3C02030096
:106C500008B5024B1B681B68019308BD4C0203007A
:106C600008B5024B1B685B68019308BD4C0203002A
:106C700008B5024B1B681B69019308BD4C02030059
:106C800008B5024B1B685B69019308BD4C02030009
:106C900008B5024B1B689B69019308BD4C020300B9
:106CA00008B5024B1B68DB69019308BD4C02030069
:106CB00008B5024B1B681B6A019308BD4C02030018
:106CC00008B5024B1B685B6B019308BD60020300B3
:106CD00008B5024B1B681B6D019308BD60020300E1
:106CE00008B5024B1B685B68019308BD20020300D6
:106CF00008B5024B1B685B69019308BD20020300C5
:106D000008B5034B1B68D3F88830019308BD000019
:106D10002002030008B5034B1B68D3F8943001939D
:106D200008BD00002002030008B5024B1B68DB69A8
:106D3000019308BD4402030008B5024B1B68DB6BDE
:106D4000019308BD4402030008B5024B1B685B6851
:106D5000019308BD4002030008B5024B1B689B6805
:106D6000019308BD4002030008B5024B1B68DB68B5
:106D7000019308BD4002030008B5024B1B681B6964
:106D8000019308BD4002030008B5024B1B685B6914
:106D9000019308BD4002030008B5024B1B689B69C4
:106DA000019308BD4002030008B5024B1B68DB6974
:106DB000019308BD4002030008B5024B1B681B6A23
:106DC000019308BD4002030008B5024B1B681B6B12
:106DD000019308BD4002030008B5024B1B685B6BC2
:106DE000019308BD4002030008B5024B1B681B6CF1
:106DF000019308BD4002030008B5024B1B685B6CA1
:106E0000019308BD4002030008B5024B1B681B68D4
:106E1000019308BD1C02030008B5024B1B685B68A8
:106E2000019308BD1C02030008B5024B1B689B6858
:106E3000019308BD1C02030008B5024B1B685B6A86
:106E4000019308BD1C02030008B5024B1B681B6BB5
:106E5000019308BD1C02030008B5024B1B68DB6BE5
:106E6000019308BD1C02030008B5024B1B681B6C94
:106E7000019308BD1C02030008B5024B1B685B6C44
:106E8000019308BD1C0203000021FFF731BF000081
:106E9000024800230360FFF763BD00BFC4E6032080
:106EA000002240681146FFF787BF00224068114664
:106EB000FFF792BF40680022FFF786BF40680022BC
:106EC00081F00101FFF770BF002340681A461946A0
:106ED000FFF762BF002340681A461946FFF754BF08
:106EE000002240681146FFF747BF00224068114664
:106EF000FFF732BF406800220221FFF735BF0023B1
:106F000040681A46FFF720BF024B03225A60024A2C
:106F10001A607047C8E6032018B00B007047F8B538
:106F2000064615460C468F18BC4206D0336814F846
:106F3000011B9B6830469847F6E72846F8BD007C61
:106F40000022FFF76DBD007C0021FFF771BD007CC2
:106F50000021FFF775BD007C0021FFF779BD007CA3
:106F60000021FFF77DBD10B514210446FDF7E5FDB6
:106F7000204610BD38B5044615464FF47A730022FA
:106F8000C4E90123094B2174084623602946FFF711
:106F900077FDBF3008D16B69DB0705D56868FFF75F
:106FA0003BFFE868FFF738FF204638BD54B00B00C0
:106FB000007C0022FFF714BD0023007C1A4619460E
:106FC000FFF716BD007C0022FFF71ABDC9B2FFF71C
:106FD000F9BF007C0022FFF71BBD0121FFF7F9BFBD
:106FE000704710B518210446FDF7A7FD204610BDD7
:106FF000F0B5037D062B8DB00E4600F104074FF06F
:10700000000412D000F1080515F8011D0A223046CF
:1070100000F073F9AF42044419D0002CF4D02E21B3
:10702000304600F051F90444EEE72F236A46394612
:107030000A208DF80040FFF733FD6846FDF71CFD80
:1070400033680246DB686946304698470446204666
:107050000DB0F0BD10B5054B0446112240F8043BBD
:10706000002101F09EFA204610BD00BF7CB00B004D
:107070000346074A10B543F8042B01F1100251F8FA
:10708000044B43F8044B9142F9D10A781A7010BDB1
:107090007CB00B00037D042B04D14068003818BF7E
:1070A00001207047062B07D143683BB983682BB991
:1070B000C3681BB90069F1E70020704701207047E1
:1070C00010B59DF8084044EA032343EA024242EA2D
:1070D000016104234160037510BD000007B5064B34
:1070E0000360CB7800938B784A780978FFF7E8FF44
:1070F00003B05DF804FB00BF7CB00B00014B024AFB
:107100001A607047D0E6032088B00B000023406867
:107110001A46FFF719BE406800220221FFF724BE7D
:10712000002240681146FFF717BE00224068114652
:10713000FFF722BE002340681A461946FFF724BE17
:10714000002340681A461946FFF726BE4068002112
:10715000FFF74ABE40680021FFF74EBE406800229C
:1071600081F00101FFF720BE40680022FFF72CBE2E
:10717000002240681146FFF72FBE002240681146EA
:10718000FFF71ABE2DE9F04395B014460D460746A9
:10719000FFF760FF00211C220DA8009101F001FA09
:1071A00040230C9320466B460CAA0021FFF798FC65
:1071B000044600284BD1024601216868FFF7DCFD38
:1071C0000221804622466868FFF7D6FD009E814670
:1071D0002146002E3BD0002939D17368022B03D001
:1071E0000A2B11D0F669F4E7B8F1000FFAD07169F3
:1071F00006A8043107ADFFF771FF0FCD3C1D0FC48A
:107200002B6823704146EDE7B9F1000FEAD07469AD
:10721000102201A801F0C5F906238DF8143001AD44
:1072200004F108031834186859682A4603C2083361
:10723000A3421546F7D101A906A807ADFFF718FF2D
:107240000FCD3C1D0FC42B6823704946CAE7009838
:10725000FFF73EFC384615B0BDE8F083024B034A09
:107260001A6000225A607047D4E6032094B00B00E5
:10727000F8B506460D468F180024BD420CD0336881
:1072800015F8011B9B6830469847031E01DB1C4420
:10729000F3E7002C08BF1C462046F8BD13B5044692
:1072A000084659B10191FDF7E7FB23680199DB68B6
:1072B0000246204602B0BDE81040184702B010BD9B
:1072C00008B5FFF7EBFF08BD03689B68184738B5A2
:1072D0000D210546FFF7F8FF0A2104462846FFF76F
:1072E000F3FF204438BD38B50546FFF7D7FF044605
:1072F0002846FFF7ECFF204438BD30B58BB00023A3
:10730000012A8DF8243098BF0A2209AC0D46B1FB42
:10731000F2F101FB125303F0FF03092B94BF30334A
:107320003733DBB2AA4204F8013DEFD92146FFF71B
:10733000B5FF0BB030BD00002DE9F74F55EC104BF9
:1073400006460F4610EE102A10EE100A2B4629466C
:10735000FDF7BCFA40B153493046FFF79FFF824624
:10736000504603B0BDE8F08F25F000494E4B4FF07A
:10737000FF3220464946FDF7A9FA48B94A4B4FF07B
:10738000FF3220464946FDF783FA08B94749E3E74B
:10739000474B4FF0604220462946FDF78DFA08B171
:1073A0004449D9E7444B4FF0604220462946FDF757
:1073B00065FA0028F4D10022002320462946FDF773
:1073C0005DFAD0B12D213046FFF77EFF05F1004375
:1073D00082461D463949DFF8EC904FF0000B002043
:1073E0004FF000085FFA8BF39F4208D942464B46A4
:1073F000FDF7FCF80BF1010BF4E78246EAE72246C1
:107400002B46FCF713FE0D460446FDF79DFA804619
:10741000FCF748FF02460B4620462946FCF704FECF
:107420000A2204460D4630464146FFF766FF824475
:10743000002F95D02249DFF88C903046FFF72EFFC1
:107440004FF000088244002F8AD042464B46204627
:107450002946FCF7A1FF04460D46FDF74DFAB0F1B1
:10746000000B1CDA2D213046FFF72EFFCBF1000177
:1074700003460A2230460193FFF73FFF019B184461
:1074800082445846FCF71EFF02460B46204629461A
:10749000FCF7CAFD013F04460D46FFB2D3E759464B
:1074A0000023E6E7C8B00B00FFFFEF7FCCB00B0076
:1074B000FFFFEF41D0B00B00FFFFEFC10000E03F46
:1074C000D4B00B000000244038B5C9B20546FFF720
:1074D00033FF04462846FFF7FAFE204438BD2DE965
:1074E000F04186B000AF05460E46381D1421144603
:1074F0003B60FFF7A1FC13280ED8391D2846FFF783
:10750000CDFE04461EB12846FFF7E1FE04442046A6
:107510001837BD46BDE8F08100F1080323F00703EA
:10752000E846ADEB030D2246411C3B686846FFF779
:1075300083FC69462846FFF7B1FE0446C546E1E7ED
:10754000014B00229A607047DCE603200021FFF720
:1075500037BB0021FFF72CBB10B50446084621704D
:10756000FFF706FB00236360204610BD13B50446F9
:107570000078FFF7EEFF58B9207801904FF6FF71C1
:10758000FFF7E6FA019802B0BDE81040FFF7DEBF52
:1075900002B010BD0078FFF7D9BF0000400830B539
:1075A0001860002418688842E5B206D90134082C16
:1075B00002D040081860F5E70725024B5B5D1370A9
:1075C00030BD00BFD6B00B002DE9F04306468FB0AA
:1075D00000780C46FFF7BDFF00281BDB357814222E
:1075E000002109A800F0DDFF0B23002209A928468D
:1075F000ADF82430FFF7CCFA9DF82D3013B19DF88B
:107600002C5055B10027B946B846012523795DB104
:10761000C3B100200FB0BDE8F083DDF830809DF8E5
:1076200034909DF83570F1E7002B35D1A3684345C0
:1076300008D18DF820908DF82170BDF82020A38905
:107640009A42E6D00023A1688DF80F300A9804AB67
:107650000DF10F02FFF7A2FF217985B989B9A3685F
:1076600043450ED38DF820908DF82170BDF8202071
:10767000A3899A4205D1049B434502D1C9E7002959
:10768000F9D100230193637B00939DF80F20237BA6
:107690003078FFF785FABCE7CDE900552B462A463E
:1076A0000121F5E708B50078FFF75AFAC0B208BD26
:1076B00010B504460068FFF7AFFB204610BD10B5BB
:1076C0000446006808B1FFF7A7FB0023C4E90133B3
:1076D000236010BD38B504460D4600680131FFF740
:1076E000A3FB10B1C4E90005012038BD10B5036843
:1076F000044623B143688B4201D3012010BD2046CC
:10770000FFF7E8FF0028F9D0A368002BF5D1226825
:107710001370F2E737B50D46114601920446FFF7A4
:10772000E5FF019A28B92046FFF7C9FF204603B0BC
:1077300030BDA2602946206800F025FF2268A368BA
:107740000021D154F2E7002313B5C0E90033044609
:107750008360037341B108460191FDF78DF90199EA
:1077600002462046FFF7D6FF204602B010BD13B5F3
:10777000044659B108460191FDF77EF90199024688
:107780002046FFF7C7FF204602B010BDFFF797FF66
:10779000F9E702680B46096862B141B9806860B1D7
:1077A00010787047986840B1097848427047104691
:1077B000FDF758B90029F5D10846704708B50068AB
:1077C00040B100F0DDFE51EC100BFDF7DDF800EEEE
:1077D000100A08BD9FED010AFBE700BF0000000092
:1077E000054B02221A60054B054A9A600020C3E946
:1077F0000000FFF775BA00BFF8E60320ECE60320AF
:107800000000FFFF13B503688DF80710DC6B012241
:107810004FF0FF330DF10701A04702B010BD10B4C7
:107820000368DC6B4FF0FF33A4465DF8044B604700
:1078300013B5134602688DF80710D46B0DF10701DC
:107840000122A04702B010BD10B54369B3F88620ED
:10785000B3F884309A42044608D06369B3F88420B0
:10786000511CA3F884101344187910BD03681B69D8
:1078700098470028F1D14FF0FF30F6E77047436991
:107880001868C043C00F704770470000064B99420C
:1078900010B500F10C0405D0084600F059FD002891
:1078A00008BF0024204610BD08B00B0010B5AC2165
:1078B0000446FDF742F9204610BDAC21FDF73DB965
:1078C0002DE9F0414FF0000886B01C46C0F8048056
:1078D00005460E4617464146102202A800F061FEFA
:1078E000631C09D04FF47A73B4FBF3F203FB124428
:1078F000CDE902285C430494686910230093006872
:1079000002AB41F2050240F6FF71FFF7F1F80028E3
:1079100007DAFFF7A1FA03686B60002006B0BDE844
:10792000F0816869002300683A463146FFF700F9A4
:10793000031EEEDB1846F1E738B584690A4B036095
:1079400005467CB16368013B63605BB923682046F0
:107950009B689847A368013BA3601BB92368204636
:10796000DB689847284638BD1CB10B0010B50446AB
:10797000FFF7E2FF20461C21FDF7DFF8204610BD8F
:1079800030B587B0044601AD6846FFF7A7FB0FCDC1
:1079900004340FC42B68237007B030BD70B54D6937
:1079A000054B04468C3544F8043B06460FCD0FC406
:1079B0002B682370304670BD7CB00B002DE9F0437E
:1079C0009846036893B00D460024DB6A06461746C6
:1079D000984728466B46224621460094FFF780F8D8
:1079E0000546002863D1009B002B4BD05B69002B20
:1079F00048D006A8FFF72EFB009B5C696378022B3A
:107A000004D1211D06A8FFF7BBFF26E00A2B24D1D5
:107A10001122294601A800F0C4FDA368002B38D02C
:107A200004F108030DF1040C183418685968624613
:107A300003C20833A3429446F7D1062301A90CA838
:107A40008DF81430FFF714FB0DF1340CBCE80F0077
:107A500007AC0FC4DCF80030237006A8FFF71AFB50
:107A600080B1336807ADD3F82090124B0C930FCD43
:107A70000DAC0FC42B6823703A4643460CA9304620
:107A8000C84705460098FFF723F8284613B0BDE81D
:107A9000F083E368002BC3D14FF6FF70D4F8109049
:107AA000FFF706F88145BBD104F11401AAE725468A
:107AB000E8E700BF7CB00B0038B543691A68002ABC
:107AC000054610DAB3F88620B3F884309A420AD11A
:107AD00003681B699847044628B92B682846DB6A67
:107AE0009847204638BD0120FCE710B54369B3F83C
:107AF0008620B3F884309A42044605D06369B3F80F
:107B000084201344187910BD03681B699847002826
:107B1000F4D14FF0FF30F6E7F8B543691746B3F8F4
:107B20008620B3F884309A4205460E4616D069691D
:107B3000B1F88430B1F88640E41ABC4228BF3C4614
:107B4000043322461944304600F01DFD6A69B2F83C
:107B500084302344A2F884302046F8BD03681B69B2
:107B600098470028E3D14FF0FF34F5E7426900233E
:107B7000A2F884304269A2F8863070472DE9F041BE
:107B80001F4603680C46DB6A8AB0054616469847CE
:107B9000237DD5F81480042B0CBF02200A20062276
:107BA0000121FEF7CDFFC8F800006B691B68002BB0
:107BB00008DA2B682846DB6A0024984720460AB07A
:107BC000BDE8F0812846FFF7D1FFB7B1002303A934
:107BD000F8B20393ADF81030FEF75AFF0028E8D151
:107BE000686906230093006803AB41F20B0240F67C
:107BF000FF71FEF77DFF0028DBD11C22002103A8C6
:107C000000F0CFFC237D042B1DD14FF407733046C9
:107C1000ADF80C30FEF754FFADF80E006068FEF7CB
:107C200047FF04906B691C22186803A9FEF770FFD8
:107C30000028BED104340FCC6D698C350FC5236884
:107C40002B700124BAE740F61C233046ADF80C3007
:107C5000FEF736FF05AEADF80E00231D04F1140744
:107C600018685968324603C20833BB421646F7D13A
:107C7000D8E7000030B54269B2F886308BB00446D0
:107C80002BB1B2F884209A4201D1FFF76FFF6169EE
:107C90000868002818DBB1F886507F2D14D804310D
:107CA0000823C5F180022944FEF73AFF002813DDBE
:107CB0006369B3F886200AB9A3F884206369B3F82E
:107CC00086201044A3F886006369B3F88600B3F8F1
:107CD0008430C01A0BB030BDFFF7BEF803680B2B21
:107CE000F2D0FFF7B9F803680B2BEDD02023002565
:107CF000CDE90235FFF7B0F803680193084B094955
:107D0000009302AA2B463220FEF7E2FF636918684F
:107D1000FEF7F6FE63694FF0FF321A60D4E700BF4A
:107D2000E5B00B00DEB00B0010B5436904461868DF
:107D3000002801DBFEF7E4FE63694FF0FF321A60B2
:107D40006069112200218C3000F02BFC2046BDE838
:107D50001040FFF70BBF10B5002304460160C0F8C8
:107D600084308830FFF776F9204610BD73B50023C4
:107D70004FF47A72C0E901320E4A03610260436136
:107D80000446AC200191FCF7D2FE051E05F10C065D
:107D900008D00123C5E90133074B01992B60304618
:107DA000FFF7D9FF2046C4E90565FFF7DFFE02B003
:107DB00070BD00BF1CB10B0000B10B0010B54FF03F
:107DC000FF310446FFF7D2FF204610BD10B5044630
:107DD0000068002801DBFEF793FE204610BD0C3042
:107DE000FFF7F4BF024B1A68024B1A60704700BFDE
:107DF000DCE30320FCE6032070474174704708B5BC
:107E0000007CFEF715FF20EAE07008BD08B5007C95
:107E1000FEF7E6FE20EAE07008BD08B5007CFEF73C
:107E2000EFFE40EAE07008BD08B5007CFEF7E0FE1A
:107E300040EAE07008BD007CFEF7EABE37B5457C3D
:107E400004462DB1207C03B0BDE83040FEF7C0BE33
:107E5000007C0191FEF7ECFE00280199F2DC284637
:107E600003B030BD10B514210446FCF766FE204671
:107E700010BD000010B54FF47A7304460846114651
:107E80000022C4E90123044B23600123207463749E
:107E9000FEF7D6FE204610BD84B10B00417470473A
:107EA0007047704708B50021007CFEF7F1FE40EAFC
:107EB000E07008BD08B50121007CFEF7E9FE40EA4C
:107EC000E07008BD08B5007CFEF7DAFE20EAE0703D
:107ED00008BD08B5007CFEF7CBFE20EAE07008BDC7
:107EE00013B50446007C0191FEF7CAFE00280199F3
:107EF00001DC607C20B1207CFEF7D2FE20EAE0703D
:107F000002B010BD007CFEF7D3BE10B514210446AC
:107F1000FCF713FE204610BD10B54FF47A730446EB
:107F200008460021C4E90113044B23600123207497
:107F300063741146FEF78CFE204610BDB4B10B00F1
:107F4000007C0022FEF78CBE10B5142204460021EE
:107F500000F027FB204610BD10B50F4C88B003A8D9
:107F6000FFF7F2FF2178BFF35B8F11F001010FD112
:107F700020460191FCF7F0FD019948B103AA07489A
:107F8000FFF7CAFF2046FCF7ECFD054800F0F2FAC7
:107F9000024808B010BD00BF00E7032004E703203B
:107FA000A17E0B00002240681146FEF7E5BE0022CC
:107FB00040681146FEF700BF002240681146FEF7F8
:107FC0000BBF40680022FEF7FFBE4068002281F030
:107FD0000101FEF7E9BE002340681A461946FEF784
:107FE000DBBE002340681A461946FEF7CDBE0022CC
:107FF00040681146FEF7B0BE406800220221FEF73D
:10800000B3BE002340681A46FEF79EBE024B042210
:108010005A60024A1A60704718E70320E4B10B0067
:10802000014B1860704700BFE0E3032008B50B4B1D
:1080300043B1FFF791FF03681B699847002801DDF2
:10804000AFF30080064B43B100F05CF903681B6995
:108050009847002801DDAFF3008008BD0000000054
:108060000000000008B5FFF7E1FFFEF791FC014BAF
:10807000186008BD28E703200548064A064908B5E8
:10808000121A00F080FA054B054A1A6008BD00BFBD
:1080900000F4032004F40320E0B80B0000F40320F4
:1080A0001E1C279A07B5002300931A466FF077012C
:1080B000FEF730FE03B05DF804FB000007B543880F
:1080C0000A2B08D0502B0BD1094B1B684BB103B0C6
:1080D0005DF804EB1847FFF7E5FF03B05DF804FB1C
:1080E000002300931A466FF07701FEF713FEF4E7C2
:1080F00024E7032010B512480021FEF7BDFE114B06
:108100001A68114B9A42114B0CBF012200221A70BF
:1081100001D0FFF7B1FFFEF72BFC044600F04AFA4E
:108120000B4B13B12046AFF3008000210848FEF747
:1081300003FEBDE8104007480021FEF7E1BD00BF87
:1081400021800B0000F403201E1C279A20E7032047
:1081500000000000BD800B00232813B502D90020C9
:1081600002B010BDA0F10B03022B1AD8174C2178D6
:10817000BFF35B8F11F001010BD120460191FCF799
:10818000EBFC019928B11248FFF7E6F92046FCF70D
:10819000E8FC0F4B1878FEF7F3FC0028DFD1012034
:1081A000DEE7012809D800F06DF80021007CFEF719
:1081B0005FFC80F00100C0B2D2E709380128EED898
:1081C00000F0A0F8007CFEF72BFDF2E7B8E60320F4
:1081D000BCE60320232838B504460D460AD8FF29FB
:1081E00008D0FFF7B9FF28B129462046BDE838403E
:1081F000FEF7D6BB38BD38B504460D46FEF7D8FBB2
:10820000FF2810D0062804D84D2323FA00F0C30716
:1082100009D42046FFF7A0FF28B129462046BDE833
:108220003840FEF7CDBB38BD10B50446FEF7C0FBA5
:10823000031FDBB2012B08D92046FFF78DFF20B1C9
:108240002046BDE81040FEF7C3BB002010BD7047BC
:1082500038B50A4B036001230446436108492020D6
:1082600000F074F8202560600549A560284600F0FC
:108270006DF8C4E90305204638BD00BF18000100B1
:1082800018B20B0030B50E4D2978BFF35B8F11F09B
:10829000010487B011D12846FCF75EFC68B168463E
:1082A000FFF7D6FF6A4621460648FEF763FE2846DA
:1082B000FCF757FC044800F05DF9024807B030BDF8
:1082C0002CE7032030E703204F820B0070470000AB
:1082D00038B5044614252A46002100F062F92580AD
:1082E0004025074925812846258200F02FF80449BA
:1082F0006060284600F02AF8E060204638BD00BFE4
:1083000018B20B0030B50E4D2978BFF35B8F11F01A
:10831000010487B011D12846FCF71EFC68B101A802
:10832000FFF7D6FF01AA21460648FFF7A3FD28461E
:10833000FCF717FC044800F01DF9024807B030BDF7
:1083400044E7032048E70320CD820B00FCF7F1BB94
:10835000014900F0F9B800BF34B20B007FB500242A
:108360001023CDE90234036815469E6912686B46F6
:10837000CDE90044B0479DF8043003F00603062B16
:1083800003BF009B2B600120204604B070BD009805
:10839000904214BF012006207047000010B5034B27
:1083A0000360044600F0CDF8204610BD74B20B0007
:1083B00010B50446FFF7F2FF20460821FCF7BDFB8D
:1083C000204610BD2DE9F0411F46DDE90834DDF8F7
:1083D000188098450646154607D1079900F0B4F86D
:1083E00018B165710020BDE8F0813946304600F0D3
:1083F000ABF80028F6D00123C4F800802571A371E2
:10840000F0E738B515461C4600F09EF820B1082369
:10841000E36006232560237138BD73B505460C461D
:1084200001921E4600F090F850B9032E08D8236838
:10843000019A5B692946204602B0BDE870401847A2
:1084400002B070BD10B5034B03600446FFF7A6FFF2
:10845000204610BDD4B20B0010B50446FFF7F2FF62
:1084600020460C21FCF769FB204610BDF7B5089F9C
:10847000974205460E4614460AD0A8680268089737
:10848000156A31462246AC4603B0BDE8F04060476D
:108490001946019300F058F8019B0028EDD0062002
:1084A00003B0F0BD2DE9F14F0D461946DDE90A4B49
:1084B000DDE90CA681461746984600F045F890B1D4
:1084C000002D3460377109DB61198A450CBF062124
:1084D0000121B171002001B0BDE8F08F0235F9D162
:1084E0000123B371F6E7544506D15946484600F0DA
:1084F0002BF808B17771EDE7D9F808000368CDE9EA
:108500000CA6CDE90A4BDC693A4643462946A44607
:1085100001B0BDE8F04F60472DE9F04107460C4639
:1085200015461E46FFF76DFF48B9B86803689F6996
:108530002A4633462146BC46BDE8F0416047BDE8C7
:10854000F081704700207047814208B50ED0406826
:1085500003782A2B0CD049680B782A2B08BF0131ED
:10856000FCF780FAB0FA80F0400908BD0120FCE772
:108570000020FAE7002301461A46184600F08ABE9A
:10858000002100F07BBE0A44914200F1FF3300D18C
:10859000704710B511F8014B03F8014F9142F9D122
:1085A00010BD02440346934200D1704703F8011BFB
:1085B000F9E7000038B5104B1D68AB6B0446B3B942
:1085C0001820FEF721FC0246A86320B90B4B0C488B
:1085D0004221FEF749FC0B490B4BC0E900130B4B42
:1085E00083600B23838100210120C2E90401AB6B6E
:1085F00000221C615A6138BDE0E303200DB30B007B
:1086000024B30B000E33CDAB34126DE6ECDE050067
:1086100010B57AB103460139841813F8010B11F82B
:10862000012F904201D1A34201D1801A10BD002830
:10863000F3D1FAE71046F9E770B504460D4645EC6C
:10864000104B164601F080FD51EC100B7EB1C5F3C6
:108650000A53C3F16B03002B09DD1B0503F17F55A2
:10866000002405F5401522462B46FBF795FE70BD0C
:108670002DE9F04F2DED028B9DB01F46002318937E
:10868000A24B13921B680593044618468846FCF7D4
:10869000F3F94FF0000A05464FF0000BCDF85C806F
:1086A000179B1A782B2A4ED03BD80D2A34D8082A8B
:1086B00034D8002A3ED000230A93179E3378302BFB
:1086C00040F0B080737803F0DF03582B68D10A9B29
:1086D000019318AB029700938D4A19AB17A9204656
:1086E00000F0A2FE10F00707054605D0062F2CD19A
:1086F0000136002317960A93139B002B40F09085B8
:108700000A9BEBB152460BF1004343EC102B1DB01A
:10871000BDEC028BBDE8F08F202ACCD1013317933A
:10872000BEE72D2AC7D101220A925A1C17925B7804
:10873000002BC2D1139BCDF85C80002B40F06E85DE
:1087400052465B46E1E70022EEE7189A3AB135213E
:108750001AA801F004FE1899204601F0C3F9013F60
:10876000042F06D8DFE807F00A0314170A00DDE932
:108770001AAB2807C0D54BF0004BBDE7DDE91AA3C3
:10878000199A23F4801302F2334243EA025BF0E7C2
:10879000DFF880B1EDE76FF0004B4FF0FF3AE8E70C
:1087A000179B5A1C17925B78302BF9D0002BA3D063
:1087B00001234FF000090493179B0893CDF81C90F8
:1087C0004F460A2217980678A6F13003D9B2092934
:1087D0002AD905992A46FFF71BFF98B30020324695
:1087E0003D4605900346652A01D0452A18D11DB99A
:1087F000049A02439ED00025DDF85C8008F1010256
:10880000179298F801202B2A75D02D2A7BD04FF093
:10881000000CA2F13001092940F28280CDF85C8081
:1088200000269DE00023C4E7082FD8BF079900F178
:108830000100DABF02FB0133079302FB093901375C
:108840001790BFE7179B5A1917925A5D002F37D020
:1088500005903D46A2F13003092B12D90123C2E74E
:10886000179B5A1C17925A780130302AF8D0A2F17F
:108870003103082B00F2D984179B05900020089340
:108880000546303A00F1010314D0059919440591C9
:108890002B4600EB050E0A21734513D12B18082B2C
:1088A00005F1010505441CDC07990A2303FB01239C
:1088B00007930023179A511C179152781846C9E75D
:1088C0003846D2E7082B04DC079E4E430796013357
:1088D000E2E703F1010CBCF1100FD8BF01FB09F96D
:1088E000F5E7102DDCBF0A2303FB0929E1E700238C
:1088F000059301237CE74FF0000C08F10202179268
:1089000098F8022085E74FF0010CF6E74CB50B0014
:1089100084B30B000000F07F179A511C1791527816
:10892000302AF9D0A2F1310108293FF679AFA2F13E
:10893000300E179A0692179A511C17915278A2F18D
:108940003006092E37D9069E891B082944F61F6672
:1089500002DC7645A8BF7646BCF1000F00D0764217
:10896000002D4DD1049901437FF4C6AE002B7FF456
:10897000E1AE692A27D024DC492A24D04E2A7FF48C
:10898000D9AE9F4917A800F0A7FF00283FF4D2AE48
:10899000179B1B78282B2DD19A491AAA17A800F0EB
:1089A000AFFF052826D11B9BDDF868A043F0FF4BE5
:1089B0004BF4E00BA0E60A2101FB0E2EAEF1300EC7
:1089C000B9E76E2ADBE7904917A800F085FF002879
:1089D0003FF4B0AE179B8D49013B17A8179300F0E9
:1089E0007BFF10B9179B01331793DFF830B24FF0BC
:1089F000000A81E6864801F007FD5BEC10AB7BE6E0
:108A0000059B0798F31A002F08BF2F46102D0693D9
:108A1000A846A8BF4FF01008FBF744FC092D82467A
:108A20008B4613DD7B4B03EBC80353E91223FBF7A3
:108A3000B3FC824648468B46FBF734FC02460B46A5
:108A400050465946FBF7F2FA82468B460F2D38DC2A
:108A5000069B002B3FF450AE24DD162B0BDC6D493A
:108A600001EBC301D1E9000152465B46FBF794FCE0
:108A700082468B4640E6069AC5F12503934220DBE9
:108A8000644CC5F10F0504EBC50152465B46D1E9C4
:108A90000001FBF781FC069B5D1B04EBC504D4E9D8
:108AA0000023E3E7069B16330BDB059B9E1B594B0C
:108AB00003EBC606D6E9002350465946FBF796FD60
:108AC000D6E7069BA5EB08089844B8F1000F74DDC3
:108AD00018F00F030AD04F4901EBC30152465B4621
:108AE000D1E90001FBF758FC82468B4638F00F08AD
:108AF0004FD0B8F59A7F22DD00252E4607950595C3
:108B00002223DFF818B123604FF0000A079B002BE7
:108B10003FF4F2AD1899204600F0E4FF0599204695
:108B200000F0E0FF3146204600F0DCFF07992046C8
:108B300000F0D8FF2946204600F0D4FFDCE5364B94
:108B4000049300234FEA2818504659469946B8F135
:108B5000010F21DC0BB182468B462F4BABF1547BCE
:108B600003EBC90952465B46D9E90001FBF714FC47
:108B70002A4B0A460B402A498B428246BCD8A1F5B3
:108B800080118B4286BFDFF89CB04FF0FF3A02F1B4
:108B9000547B0023049384E018F0010F05D0049B5C
:108BA000D3E90023FBF7F8FB0123049A083209F10B
:108BB00001094FEA68080492C9E7EAD0C8F1000841
:108BC00018F00F020AD0134B03EBC203504659466C
:108BD000D3E90023FBF70AFD82468B465FEA28189B
:108BE000D7D0B8F11F0F1FDD00252E46079505953C
:108BF00022234FF0000A4FF0000B236086E700BFEE
:108C0000C9B00B0098B30B00CDB00B007DB30B00C7
:108C100034AA0B00E8B50B00C0B50B000000F07FD4
:108C20000000A07CFFFFEF7F18F0100318BF6A233D
:108C3000DFF8AC93049350465946002318F0010F17
:108C400004D0D9E90023FBF7A7FB01235FEA6808FA
:108C500009F10809F2D10BB182468B46049BC3B1DE
:108C6000CBF30A52C2F16B03002B594611DD1F2BC7
:108C700040F32481342BDEBFC2F14B024FF0FF33AF
:108C800003FA02F24FF0000ACCBF4FF05C7B02EA1D
:108C9000010B0022002350465946FBF7E5FD002852
:108CA000A2D1079B009308992B463A46204600F034
:108CB00081FF079000283FF41FAF059B9E1B069B7A
:108CC000002BB4BF334600230C93069B002523EAF8
:108CD000E37312932E46079B2046596800F0C2FEAC
:108CE000059000283FF40CAF079B1A69023203F18C
:108CF0000C0192000C30FFF746FC4BEC10AB1AAAAB
:108D000019A9204601F09CFA4BEC18AB18900028EA
:108D10003FF4F6AE0121204600F0E6FF06460028AB
:108D20003FF4EEAE199B0499002BABBF0C9A129A3C
:108D3000129FDDF83090ACBF03EB0209D71A1A9AE4
:108D4000A3EB01089044A14B08F1FF389845C2F10C
:108D5000360280F2C780A3EB08031F2BA2EB0302AD
:108D60004FF0010100F3B18001FA03F30D930023EA
:108D7000089309EB0208049BC14517441F444B4666
:108D8000A8BF4346BB42A8BF3B46002BC2BFA8EBCF
:108D90000308FF1AA9EB03090C9B002B17DD3146D2
:108DA0001A46204601F060F8064600283FF4A8AEB7
:108DB0000146189A204600F0ADFF0B9000283FF4C2
:108DC0009FAE1899204600F08DFE0B9B1893B8F1CA
:108DD000000F00F38C80069B002B08DD129A05998A
:108DE000204601F041F8059000283FF489AE002F9D
:108DF00008DD05993A46204601F090F805900028D4
:108E00003FF47EAEB9F1000F08DD31464A462046F8
:108E100001F084F8064600283FF472AE059A1899CE
:108E2000204601F007F9054600283FF469AEC36803
:108E30000B930023C360314601F0E0F8002860DAAC
:108E40000B9B53EA0A0340F08280CBF31303002B01
:108E50007DD12BF000431B0D1B05B3F1D66F76D9E6
:108E60006B6913B92B69012B71DD2946012220465C
:108E700001F054F83146054601F0C0F8002866DDDF
:108E80000499534A5B46002900F0818002EA0B01F5
:108E9000B1F1D66F7BDCB1F15C7F7FF7A9AE4D4BB2
:108EA000504659460022FBF777FA0B46034308BFAA
:108EB000222382468B4608BF23602BE64FF0FF3209
:108EC00002FA03F303EA0A0AE3E6C8F17F4808F569
:108ED0007F0808F57B4808F1E20801FA08F30893D7
:108EE0000D9146E70023089301230D9341E718995C
:108EF0004246204601F012F8189000287FF46BAF2C
:108F0000FEE55F466ED10B9ACBF3130342B3324AB0
:108F1000934228D1049B5146EBB12D4B3B40B3F11A
:108F2000D46F4FF0FF3219D81B0DC3F16B0302FA57
:108F300003F3994217D1294B9F4202D101313FF4EB
:108F4000DFAD234B3B4003F5801B4FF0000A049B31
:108F5000002BA4D1DEE54FF0FF33EAE71346E8E744
:108F600053EA0A038CD0089BDBB13B42EFD00B9B4A
:108F7000049A50465946C3B1FFF75EFB02460B46C2
:108F800051EC180BFBF752F882468B46DFE7134093
:108F9000A3F580136FEA135B6FEA0B5B4FF0FF3AA8
:108FA000D5E70D9B13EA0A0FE0E7FFF745FB024602
:108FB0000B4651EC180BFBF737F8002200238246D2
:108FC0008B46FBF751FC0028C1D011E602FCFFFFE5
:108FD0000000F07F00005039FFFF0F00FFFFEF7F20
:108FE000B0B30B003146284601F086F959EC108BDE
:108FF00010EE100A00224FF080434946FBF748FC70
:1090000000287AD00B9B002B4AD0954B0022CDE94B
:109010000823DFF84C924FF00008924B3B400D9331
:109020000D9A914B9A4240F0B080DDE90801A7F11A
:10903000547B4BEC10ABCDE9080101F085F8DDE97C
:10904000080153EC102BFBF7A7F952465B46FAF7E1
:10905000EDFF0B468349854A19409142824660D90B
:1090600018EE903A02F15472934204D118EE103A7D
:1090700001333FF445ADDFF800B24FF0FF3A1899E5
:10908000204600F02FFD0599204600F02BFD3146CB
:10909000204600F027FD2946204600F023FD1AE671
:1090A000BAF1000F1BD1CBF31303F3B96C4B0022C1
:1090B00040464946FBF7E2FBD0B9404649466C4B77
:1090C0000022FBF769F98046894609F10043CDF893
:1090D00050801593DDE91423CDE908239DE7BAF10B
:1090E000010F02D1002F3FF483AD624B00228EE7C7
:1090F000DFF87C914FF00008E7E75D4B40464946BA
:109100000022FBF749F90B9B8046894633B901F1F0
:1091100000430E900F93DDE90E23DDE7CDE90E89C4
:10912000F9E703F1547B049B002BA8D12BF00043FB
:109130000D9A1B0D1B059A42A1D140464946FBF7EB
:10914000A3FCFBF7FBF802460B4640464946FAF7FC
:109150006BFF0B9ACBF3130343EA0A0313438046D6
:10916000894655D036A3D3E90023FBF787FB0028B7
:109170007FF4D0AC34A3D3E9002340464946FBF743
:109180009BFB00283FF47BAFC4E4049B33B30D9BEF
:10919000B3F1D46F22D82EA3D3E900234046494629
:1091A000FBF776FBA0B149464046FBF7CDFB012813
:1091B00038BF0120FBF776F80B9B8046894623BB1E
:1091C00001F1004310901193DDE91023CDE908234C
:1091D000099B0D9A03F1D6639B1A0993DDE90801F7
:1091E000B0EE480AF0EE680ACDE9080100F0ACFFE5
:1091F000DDE9080153EC102BFBF7CEF853EC182BEC
:10920000FAF714FF82468B468DE7CDE91089DBE73C
:1092100011A3D3E90023FBF731FBB2E700230A9344
:10922000139A179B1360FFF76BBA652A3FF45FAB85
:10923000452A3FF45CAB0123FFF794BBAFF30080FA
:109240009535A094FFFFDF3F35E5AF350000E03FE7
:109250000000C0FFFFFFDF419535A094FFFFCF3F27
:109260000000F03F0000F07F0000E07FFFFF9F7CE8
:109270000000E03F0000F0BFFFFFEF7F0A4601461D
:109280000248034B0068FFF7F3B900BFE0E3032097
:109290004CE403202DE9F843DFF8B8800646D8F8FF
:1092A00000001F460D46914600F0C6FB254B1C688A
:1092B00034B9254C1C60254B13B11B68C4F88830A9
:1092C00063681F2B07DDD8F8000000F0B7FB4FF0F4
:1092D000FF30BDE8F8834EB3D4F8880088B91C4B42
:1092E00023B9D8F8000000F0A8FBF0E74FF4847031
:1092F000FDF78AFD0028F4D00023C0E94033C4F80C
:109300008800636840F8239001229A4000EB8301B3
:10931000D0F800311343C0F80031022EC1F880703C
:1093200002BFD0F804311343C0F804316368D8F8A1
:1093300000005A1C0233626044F8235000F07EFBA8
:109340000020C6E7E8E703205CE7032000000000F8
:10935000096E0B0044E403200369B3EB611F2DE9A0
:10936000F0434FEA611200F1140445DD11F01F01D2
:1093700004EB830604EB82050CD100F110072946AB
:10938000B14234D39B1A9B00EA1E964238BF002399
:10939000234415E054F82270C1F12008CF4005F1B4
:1093A000040EA1467645F44615D89A1A9200043A5E
:1093B0000135AE4238BF0022A318A75007B10433CD
:1093C0001A1BA3424FEAA20208BF0023026108BF92
:1093D0004361BDE8F083DCF800C00CFA08FC4CEAFD
:1093E000070749F8047B5EF8047BCF40DAE751F8C1
:1093F00004CB47F804CFC3E72346E1E7A0F13003ED
:10940000092B02D82038C0B27047A0F16103052BA8
:1094100001D84738F7E7A0F14103052B01D82738D9
:10942000F1E70020704700002DE9F04F2DED028B91
:1094300089B008EE100A0493B44B1B6801931846D8
:109440008B469046FBF718FB019BDBF8002003449A
:10945000824613F8013C0593931CC2F1FF2202F5EA
:109460007F02FE32D1181F4613F8010B00913028FD
:10947000F8D0FFF7C3FF044600283AD101995246BD
:109480003846FFF7C5F80546002868D117F80A00E6
:1094900007EB0A06FFF7B2FF002862D033461878C0
:1094A00030281F4603F10103F9D0FFF7A7FF01237E
:1094B000B0FA80F46409354600933A461646013204
:1094C0003078FFF79BFF0028F8D1019952463046CB
:1094D000FFF79EF880B94DB906EB0A052A461646F5
:1094E00001323078FFF78AFF0028F8D1AD1BAD00BC
:1094F00004E000242546E0E7002DF7D1337803F09F
:10950000DF03502B3BD173782B2B2CD02D2B2ED05F
:10951000711C4FF000090878FFF770FF431EDBB2A3
:10952000182B2CD8A0F1100211F8010FFFF766FFDD
:10953000431EDBB2182B1DD9B9F1000F00D05242E7
:109540001544CBF80010E4B1009B002B14BF00279A
:109550000627384609B0BDEC028BBDE8F08F3E46C9
:1095600025460124CAE74FF00009B11CD3E74FF0AC
:109570000109FAE70A2303FB0202103AD4E7314655
:10958000DFE7F31B013B2146072B0BDC18EE100A2B
:1095900000F068FA044640B95D4B0246DE215D48A2
:1095A000FDF762FC01315B10EEE700F114094FF0AA
:1095B000000BCAF10103CDF80890CDF800B0069376
:1095C000B74240D30298009B40F8043BA0EB09004F
:1095D000801046012061184600F036FB301AD8F89A
:1095E0000060B04263DD871B3946204600F0DAFE9A
:1095F0008246A8B17B1E591103F01F0259F82110B1
:109600004FF0010A0AFA02F20A4209D0534505DD79
:10961000B91E204600F0C6FE002845D14FF0020AD0
:1096200039462046FFF798FE3D44D8F80830AB4253
:109630004CDA18EE100A214600F054FA149A00236E
:109640001360A32785E7731E059A039316F8013C60
:10965000934219D0BBF1200F07D1029B009A43F827
:10966000042B0293002300939B4616F8010CFFF78E
:10967000C5FE009B00F00F0000FA0BF003430093BF
:109680000BF1040B039B0DE0039B069A1344BB42B2
:10969000E0D31846019907935246FEF7B9FF079B9E
:1096A0000028D7D11E468BE74FF0030AB8E70ADA45
:1096B000371A214618EE100A3A4600F02FFCED1B2F
:1096C000044600F114094FF0000AAEE7D8F8040090
:1096D000A84272DD451BAE4236DCD8F80C30022BB6
:1096E0002AD0032B2CD0012B1CD1AE421AD1012E33
:1096F00012D1049AD8F80430136001232361C9F809
:109700000030149B62271C6023E700BF4CB50B00A0
:10971000D9B40B00EAB40B00711E204600F042FEE3
:109720000028E6D118EE100A214600F0DBF9149A61
:109730000023136050270CE7159B002BF2D1D8E7CC
:10974000159B002BD5D1EDE76F1EBAF1000F31D17B
:1097500027B13946204600F025FE82467B110121C3
:1097600059F8233007F01F0701FA07F71F4229466F
:10977000204618BF4AF0020A761BFFF7EDFDD8F825
:1097800004500227BAF1000F48D0D8F80C30022B51
:1097900015D0032B17D0012B09D11AF0020F06D0D8
:1097A000D9F800004AEA000A1AF0010F0ED147F07A
:1097B000100733E04FF0010AD0E70127E2E7159BDD
:1097C000C3F101031593159B002BF0D0D4F810B012
:1097D00004F114034FEA8B0A03EB8B014FF0000CEA
:1097E000184653F8042BB2F1FF3F1CD0013202603F
:1097F000022F04F114033FD1D8F80020013AB242FD
:109800000AD17111012253F8213006F01F0602FA25
:1098100006F61E4218BF174647F02007149B1C602F
:10982000049B1D6095E6994243F804CCD8D8A36800
:109830009B4519DB616818EE100A013100F012F93E
:10984000814618B91A4B02468421A8E622690232E1
:1098500004F10C0192000C30FEF795FE214618EE43
:10986000100A00F03FF94C4623695A1C04EB8303AD
:10987000226101225A61BBE722695A450BDD0121B1
:109880002046FFF769FDD8F808300135AB42FFF6F6
:10989000D0AE0127C0E716F01F06FAD05344C6F138
:1098A000200653F8040C00F0CFF9B042E7DBF0E7F4
:1098B000D9B40B00C2F10802920070B5C2F12006C3
:1098C0004368046803FA06F52C43D340046040F86B
:1098D000043F8842F4D370BD30B50368013311F8FA
:1098E000014B14B90360012030BD13F8012BA2F124
:1098F0004105192D98BF2032A242F0D00020F3E795
:109900002DE9F04F0B685E1102EB860613F01F0382
:1099100087B018BF04360025371F904602680193B0
:10992000824646F8045CB9463C460295AB465178FF
:10993000531C039341B3084605920491FFF75EFD63
:1099400000284FD10499059A202918D8029B9B45DD
:1099500013DD4C4506D2072D04DC2A464946204635
:10996000FFF7A8FF444550D90023A4F1040944F8A7
:10997000043CCDF808B04C461D46039AD7E7292988
:1099800056D10232CAF80020BBF1000F50D04C452E
:1099900006D2072D04DC2A4649462046FFF78AFFF7
:1099A000444534D9A8F10402234653F8041B42F875
:1099B000041F9F42F9D23B1B23F0030304330134FD
:1099C000033EB44288BF04234344002243F8042BDF
:1099D0009F42FBD23B681BB9474527D101233B601F
:1099E000052026E00135082D0BF1010B06DD44456D
:1099F000C3D9002344F8043C0125043C226800F04C
:109A00000F0040EA02122260B7E70825B5E7019B84
:109A1000002BDFD04FF0FF32C3F1200322FA03F313
:109A200056F8042C1A4046F8042CD3E7043FD1E73B
:109A3000042007B0BDE8F08F70477047704782B0D0
:109A400001B901A942B14BB113780B601278101E15
:109A500018BF012002B070471046FBE76FF001000D
:109A6000F8E7000070B5466A04460D4676B9102046
:109A7000FDF7CAF90246606220B9184B1848662102
:109A8000FDF7F2F9C0E901660660C660666AF36830
:109A900083B1636ADB6853F82500B8B9012101FA84
:109AA00005F6721D9200204600F09DFC60B1C0E9F1
:109AB00001560EE021220421204600F094FC636A46
:109AC000F060DB68002BE4D1002070BD026843F831
:109AD00025200023C0E90333F7E700BF0DB30B00D7
